:020000020000FC
:020000005CC0E2
:1000120000C00F931F930FB70F93009164000395D5
:10002200043008F0002700936400003079F4C5988A
:10003200009160000F7808BB00916000000F007E05
:1000420012B31F70012B02BBC69A31C0013079F482
:10005200C698009161000F7808BB00916100000F03
:10006200007E12B31F70012B02BB949A20C0023093
:1000720079F49498009162000F7808BB00916200B5
:10008200000F007E12B31F70012B02BBC49A0FC077
:10009200C498009163000F7808BB00916300000FC1
:1000A200007E12B31F70012B02BBC59A00C00F91D4
:1000B2000FBF1F910F91189504E00EBF0FE50DBF02
:1000C20000271FEF18010FEF08BB0FEF07BB00E37C
:1000D20005BB05E004BB0BEF02BB06EF01BB01E071
:1000E2000093600003E00093610007E00093620068
:1000F2000FE0009363002092640003E003BF01E07D
:0601020009BF7894FFCF55
:00000001FF
